:020000040000FA
:020000000B28CB
:10000800DE00030E8312A2000A08A300D2280C28DF
:100018008312C101C201C301C401C501C601C701E0
:10002800C8018301DA298312BA01BB0100303B02FF
:10003800093003193A02031898283A0AB400023022
:10004800B5000030B6002B280310B50DB60DB40B63
:1000580028283508B8003608B9003208A400330843
:10006800A500A601A7010030AB000F30AA0042305E
:10007800A9004030A8009A2183122708BF0026084B
:10008800BE002508BD002408BC003808A4003908B3
:10009800A500A601A7013F08AB003E08AA003D083D
:1000A800A9003C08A8003B2183122708BF002608A6
:1000B800BE002508BD002408BC000030A7000030A1
:1000C800A6000330A500E830A4003F08AB003E08B6
:1000D800AA003D08A9003C08A8003B218312270874
:1000E800BF002608BE002508BD002408BC003F0844
:1000F800031D8B283E08031D8B2801303D02031D7C
:10010800892800303C02031D8928031C98280130E7
:10011800BA070318BB0A0030BB0700303B0209309E
:1001280003193A02031C212808303A063B04031D30
:100138009F280030080083168111010883123A06AF
:10014800F8393A0683168100811200308312B40010
:100158000130B5000030B6000030B7003C08B402EA
:100168003D08031C3D0FB928BA28B5023E08031CF8
:100178003E0FBF28C028B6023F08031C3F0FC52802
:10018800C628B7023708BF003608BE003508BD00CC
:100198003408BC003C0881003C08080085128B1A12
:1001A8000B1D32290B11470881004108420403192D
:1001B800EC28E830C5000330C6007030C3001730A3
:1001C800C4000130C1020030031CC203C20232293C
:1001D8008519F028051DF528E830C5000330C6004C
:1001E800FF28450846040319FF280130C5020030DE
:1001F800031CC603C602050E01394806031909295E
:100208007030C3001730C40013294308440403198D
:1002180013290130C3020030031CC403C402003098
:10022800051A0130C8004308440403191F2945086A
:100238004604031D2D290030A000A10018227030AB
:100248008312C3001730C4006430C1000030C200FC
:1002580032290130A0000030A1001822831285162F
:1002680023088A00220E8300DE0E5E0E090000308D
:100278008312B0000030AF000030AE000030AD0097
:10028800270826042504240403199129B101B10A79
:10029800A71B5C290130AC000310A40DA50DA60D09
:1002A800A70DAC0B50290130AC002C08B1074C2924
:1002B8000130AC000310AD0DAE0DAF0DB00DAC0BA1
:1002C8005E2927082B02031D732926082A02031D0D
:1002D800732925082902031D732924082802031CF1
:1002E80084292408A8022508031C250FA90226082A
:1002F800031C260FAA022708031C270FAB022D1484
:1003080001300310A70CA60CA50CA40CFF3E031D7E
:1003180085290130B102031D5C293008A7002F0888
:10032800A6002E08A5002D08A4000800003083129E
:10033800B0000030AF000030AE000030AD00241C2B
:10034800B9292808AD07290803110318013E031D20
:10035800AE072A0803110318013E031DAF072B0837
:1003680003110318013E031DB0070130AC00031050
:10037800A80DA90DAA0DAB0DAC0BBB2901300310BC
:10038800A70CA60CA50CA40CFF3E031DC329270827
:10039800260425042404031DA3293008A7002F08D8
:1003A800A6002E08A5002D08A40008000730831217
:1003B800990083169F01FF30831285008316051468
:1003C8008510851505150516851201308312A400C0
:1003D8000030A5000A2200308312051A0130C80037
:1003E8007030C3001730C400E830C5000330C600C1
:1003F800C101C2010A30B2000030B30017208312D5
:10040800C0004008C7008B168B17092A83122408DE
:1004180025040319142A83168514831285140800E9
:1004280085108316851008008312200821040319FB
:10043800222A8316851483128514080085108316D2
:100448008510080002308A000408840A82070034F4
:08045800403442340F3400343B
:02400E008431FB
:00000001FF
